R17539599130011234578903216549870CREHIPOTECARIOS COMUNES DOLARES1                                                                    E201009102014091020130505201409180000000002000000000000030000000000000040000000000000500001
R17539599140011234578903216549870CREHIPOTECARIOS COMUNES DOLARES2                                                                    E201009102014091020130505201409180000000002100000000000030000000000000040000000000000500001
R17539599150011234578903216549870CREHIPOTECARIOS COMUNES DOLARES3                                                                    E201009102014091020130505201409180000000002200000000000030000000000000040000000000000500001
R17539599160011234578903216549870CREHIPOTECARIOS COMUNES DOLARES4                                                                    E201009102014091020130505201409180000000002300000000000030000000000000040000000000000500001
R17539599170011234578903216549870CREHIPOTECARIOS COMUNES DOLARES5                                                                    E201009102014091020130505201409180000000002400000000000030000000000000040000000000000500001
R17539599180011234578903216549870CREHIPOTECARIOS COMUNES DOLARES6                                                                    E201009102014091020130505201409180000000002500000000000030000000000000040000000000000500001
R17539599190011234578903216549870CREHIPOTECARIOS COMUNES DOLARES7                                                                    E201009102014091020130505201409180000000002600000000000030000000000000040000000000000500001
R17539599100011234578903216549870CREHIPOTECARIOS COMUNES DOLARES8                                                                    E201009102014091020130505201409180000000002700000000000030000000000000040000000000000500001
R17539599230011234578903216549870CREHIPOTECARIOS COMUNES DOLARES9                                                                    E201009102014091020130505201409180000000002800000000000030000000000000040000000000000500001
R17539599330011234578903216549870CREHIPOTECARIOS COMUNES DOLARES0                                                                    E201009102014091020130505201409180000000002900000000000030000000000000040000000000000500001
R17539599430011234578903216549870CREHIPOTECARIOS COMUNES DOLARESA                                                                    E201009102014091020130505201409180000000012000000000000030000000000000040000000000000500001
R17539599530011234578903216549870CREHIPOTECARIOS COMUNES DOLARESB                                                                    E201009102014091020130505201409180000000022000000000000030000000000000040000000000000500001
R17539599630011234578903216549870CREHIPOTECARIOS COMUNES DOLARESC                                                                    E201009102014091020130505201409180000000032000000000000030000000000000040000000000000500001
R17539599730011234578903216549870CREHIPOTECARIOS COMUNES DOLARESF                                                                    E201009102014091020130505201409180000000042000000000000030000000000000040000000000000500001
R17539599830011234578903216549870CREHIPOTECARIOS COMUNES DOLARESG                                                                    E201009102014091020130505201409180000000052000000000000030000000000000040000000000000500001
R17539599190011234578903216549870CREHIPOTECARIOS COMUNES DOLARESH                                                                    E201009102014091020130505201409180000000062000000000000030000000000000040000000000000500001
R17539599100011234578903216549870CREHIPOTECARIOS COMUNES DOLARESJ                                                                    E201009102014091020130505201409180000000072000000000000030000000000000040000000000000500001
R17539599230011234578903216549870CREHIPOTECARIOS COMUNES DOLARESY                                                                    E201009102014091020130505201409180000000082000000000000030000000000000040000000000000500001
R17539599330011234578903216549870CREHIPOTECARIOS COMUNES DOLARESU                                                                    E201009102014091020130505201409180000000092000000000000030000000000000040000000000000500001
R17539599430011234578903216549870CREHIPOTECARIOS COMUNES DOLARESI                                                                    E201009102014091020130505201409180000000012000000000000030000000000000040000000000000500001
R17539599530011234578903216549870CREHIPOTECARIOS COMUNES DOLARESO                                                                    E201009102014091020130505201409180000000002000000000000030000000000000040000000000000500001
R17539599630011234578903216549870CREHIPOTECARIOS COMUNES DOLARESP                                                                    E201009102014091020130505201409180000000002000000000000030000000000000040000000000000500001
R17539599730011234578903216549870CREHIPOTECARIOS COMUNES DOLARESL                                                                    E201009102014091020130505201409180000000002000000000000030000000000000040000000000000500001
R17539599830011234578903216549870CREHIPOTECARIOS COMUNES DOLARESY                                                                    E201009102014091020130505201409180000000002000000000000030000000000000040000000000000500001
R17539599930011234578903216549870CREHIPOTECARIOS COMUNES DOLAREST                                                                    E201009102014091020130505201409180000000002000000000000030000000000000040000000000000500001
R17539599030011234578903216549870CREHIPOTECARIOS COMUNES DOLARESQ                                                                    E201009102014091020130505201409180000000002000000000000030000000000000040000000000000500001
