R175395991300112345678901234567890CREHIPOTECARIOS  R                                                                                  2012100120121001201008012012100110000000000000010000000000000010000000000000010000000000000010000000000000009-01
R172040285800123456789012345678901CREHIPOTECARIOS VENCIDO                                                                             2012100120121001201008012012100110000000000000010000000000000010000000000000010000000000000010000000000000009-01
R175040285500134567890123456789012CREHIPOTECARIOS   V                                                                                 2012100120121001201008012012100110000000000000010000000000000010000000000000010000000000000010000000000000009-01
R179040285100145678901234567890123CREHIPOTECARIOS    V                                                                                2012100120121001201008012012100110000000000000010000000000000010000000000000010000000000000010000000000000009-01
R175040285700156789012345678901234CREHIPOTECARIOS     B                                                                               2012100120121001201008012012100110000000000000010000000000000010000000000000010000000000000010000000000000009-01
R175240287900167890123456789012345CREHIPOTECARIOS      N                                                                              2012100120121001201008012012100110000000000000010000000000000010000000000000010000000000000010000000000000009-01
R115395991300178901234567890123456CREHIPOTECARIOS       M                                                                             2012100120121001201008012012100110000000000000010000000000000010000000000000010000000000000010000000000000009-01
R105395991300189012345678901234567CREHIPOTECARIOS        J                                                                            2012100120121001201008012012100110000000000000010000000000000010000000000000010000000000000010000000000000009-01
R175040285600190123456789012345678CREHIPOTECARIOS         Y                                                                           2012100120121001201008012012100110000000000000010000000000000010000000000000010000000000000010000000000000009-01
R195395991300101234567890123456789CREHIPOTECARIOS          I                                                                          2012100120121001201008012012100110000000000000010000000000000010000000000000010000000000000010000000000000009-01
R173395991300112345678909876543210CREHIPOTECARIOS           L                                                                         2012100120121001201008012012100110000000000000010000000000000010000000000000010000000000000010000000000000009-01
R172395991300123456789098765432101CREHIPOTECARIOS            U                                                                        2012100120121001201008012012100110000000000000010000000000000010000000000000010000000000000010000000000000009-01
R175040284900134567890987654321012CREHIPOTECARIOS              I                                                                      2012100120121001201008012012100110000000000000010000000000000010000000000000010000000000000010000000000000009-01
C1703959913   45678909876543210123CREHIPOTECARIOS               O                                                                     2012100120121001201008012012100110000000000000010000000000000010000000000000010000000000000010000000000000009-01
C1793959913   56789098765432101234CREHIPOTECARIOS                P                                                                    2012100120121001201008012012100110000000000000010000000000000010000000000000010000000000000010000000000000009-01