R175395991300112345678901234567890CREHIPOTECARIOS  R                                                                                    12012032020041220201203202004122000000000010000000000000010000000000000010000000000000010000000000000010000009-01
R165395991300112345678901234567890CREHIPOTECARIOS  F                                                                                    12012032020041220201203202004122000000000010000000000000010000000000000010000000000000010000000000000010000009-01
R155395991300112345678901234567890CREHIPOTECARIOS   V                                                                                   12012032020041220201203202004122000000000010000000000000010000000000000010000000000000010000000000000010000009-01
R145395991300112345678901234567890CREHIPOTECARIOS    V                                                                                  12012032020041220201203202004122000000000010000000000000010000000000000010000000000000010000000000000010000009-01
R135395991300112345678901234567890CREHIPOTECARIOS     B                                                                                 12012032020041220201203202004122000000000010000000000000010000000000000010000000000000010000000000000010000009-01
R125395991300112345678901234567890CREHIPOTECARIOS      N                                                                                12012032020041220201203202004122000000000010000000000000010000000000000010000000000000010000000000000010000009-01
R115395991300112345678901234567890CREHIPOTECARIOS       M                                                                               12012032020041220201203202004122000000000010000000000000010000000000000010000000000000010000000000000010000009-01
R105395991300112345678901234567890CREHIPOTECARIOS        J                                                                              12012032020041220201203202004122000000000010000000000000010000000000000010000000000000010000000000000010000009-01
R185395991300112345678901234567890CREHIPOTECARIOS         Y                                                                             12012032020041220201203202004122000000000010000000000000010000000000000010000000000000010000000000000010000009-01
R195395991300112345678901234567890CREHIPOTECARIOS          I                                                                            12012032020041220201203202004122000000000010000000000000010000000000000010000000000000010000000000000010000009-01
R173395991300112345678901234567890CREHIPOTECARIOS           L                                                                           12012032020041220201203202004122000000000010000000000000010000000000000010000000000000010000000000000010000009-01
R172395991300112345678901234567890CREHIPOTECARIOS            U                                                                          12012032020041220201203202004122000000000010000000000000010000000000000010000000000000010000000000000010000009-01
R171395991300112345678901234567890CREHIPOTECARIOS              I                                                                        12012032020041220201203202004122000000000010000000000000010000000000000010000000000000010000000000000010000009-01
C1703959913   12345678901234567890CREHIPOTECARIOS               O                                                                       12012032020041220201203202004122000000000010000000000000010000000000000010000000000000010000000000000010000009-01
C1793959913   12345678901234567890CREHIPOTECARIOS                P                                                                      12012032020041220201203202004122000000000010000000000000010000000000000010000000000000010000000000000010000009-01                                                       