AAAR0990029105001 20160404200342000061000000000000000000000001441864
305734000001000001RE20160404USD0000000000030000110CEC 3000                    09040895131         Proceso O.K.                                                                                                                                          001CRSI9218390003914003                    ZG 13679940904089513    ORDONEZ JARAMILLO JOSE ROBERTO          000000004780120000000000000000
305734000002000001RE20160404USD0000000000330400158CEC 3000                    09024178561         Proceso O.K.                                                                                                                                          001TITULO  0000012895                      ZG 13679940902417856    ROMO NARANJO BRENDA VICENTA             000000009575020000000000000000
305734000003000001RE20160404USD0000000000103000105CEC 3000                    09160411551         Proceso O.K.                                                                                                                                          001CRSI9218399000203013                    ZG 13679940916041155    HERNANDEZ RUIZ ROSA JAZMIN              000000009841720000000000000000
305734000004000001RE20160404USD0000000000020000171CEC 3000                    13036190901         Proceso O.K.                                                                                                                                          001CRSI9218390154089001                    ZG 13679941303619090    CANARTE RIVERA TERESA MARLENE           000000004044620000000000000000
305734000005000001RE20160404USD0000000000121640158CEC 3000                    09094878371         Proceso O.K.                                                                                                                                          001CRSI9218390176706004                    ZG 13679940909487837    JACOME ROSADO JANINE ELIZABETH          000000009476520000000000000000
305734000006000001RE20160404USD0000000000131030197CEC 3000                    09220082221         Proceso O.K.                                                                                                                                          001TITULO  0000007445                      ZG 13679940922008222    MOSQUERA CASTRO MARCELINO GEOV          000000001755320000000000000000
305734000007000001RE20160404USD0000000000032070108CEC 3000                    09227192081         Proceso O.K.                                                                                                                                          001TITULO  0000009068                      ZG 13679940922719208    GUTIERREZ ZAMBRANO ERICKA JAZM          000000003896320000000000000000
305734000008000001RE20160404USD0000000000040000149CEC 3000                    09083993971         Proceso O.K.                                                                                                                                          001VISA4179450069254005                    ZG 13679940908399397    ABAD ZAMORA ELIZABETH DEL ROCI          000000003483820000000000000000
305734000009000001RE20160404USD0000000000040000105CEC 3000                    09035490871         Proceso O.K.                                                                                                                                          001CRSI9218390006875037                    ZG 13679940903549087    AVENDANO ROSALES DANIEL ALFRED          000000009770420000000000000000
305734000010000001RE20160404USD0000000000015000149CEC 3000                    09160824231         Proceso O.K.                                                                                                                                          001CRSI9218390298695002                    ZG 13679940916082423    DUQUE ABARCA BEIRUTH OLIMPIA            000000003453220000000000000000
305734000011000001RE20160404USD0000000000025000129CEC 3000                    09101609281         Proceso O.K.                                                                                                                                          001CRSI9218397004789003                    ZG 13679940910160928    BAHAMONDE HEREDIA MARIA DE LOU          000000003996620000000000000000
305734000012000001RE20160404USD0000000000223000129CEC 3000                    09120840271         Proceso O.K.                                                                                                                                          001TITULO  0000015684                      ZG 13679940912084027    CEVALLOS PINCAY PATRICIA ALEXA          000000003988620000000000000000
305734000013000001RE20160404USD0000000000015000149CEC 3000                    17094032481         Proceso O.K.                                                                                                                                          001VISA4179450022521003                    ZG 13679941709403248    ESPINOZA VELASTEGUI CARLOS ALB          000000003409220000000000000000
305735000001000001RE20160404USD0000000000030001400CEC 3000                    17025972361         Proceso O.K.                                                                                                                                          001TITULO  0000036764                      ZG 13680021702597236    OROZCO AMORES ROSARIO MARGOTH           000000004894420000000000000000
305736000001000001RE20160404USD0000000000400000550CEC 3000                    17045694721         Proceso O.K.                                                                                                                                          001VISA4179450034577001                    ZG 13681031704569472    BERNAL BERNAL ELENA DEL CARMEN          000000006534020000000000000000
305738000001000001RE20160404USD0000000000012000103CEC 3000                    09193883551         Proceso O.K.                                                                                                                                          001CRSI9218390264282009                    ZG 13685880919388355    SOLARTE BRIONES JUANA GENOVEVA          000000007005520000000000000000
305738000002000001RE20160404USD0000000000010000100CEC 3000                    09146976101         Proceso O.K.                                                                                                                                          001CRSI9218399002414006                    ZG 13685880914697610    FRANCO JOHNSON GISELLE MARIBEL          000000009202620000000000000000
305738000003000001RE20160404USD0000000000131000163CEC 3000                    09179109861         Proceso O.K.                                                                                                                                          001TITULO  0000002519                      ZG 13685880917910986    CABRERA MEJIA MARIA ELENA               000000003343520000000000000000
305738000004000001RE20160404USD0000000000390390100CEC 3000                    09105228041         Proceso O.K.                                                                                                                                          001TITULO  0000017435                      ZG 13685880910522804    BALLAGAN TIXE JOSE ANTONIO              000000009132220000000000000000
305738000005000001RE20160404USD0000000000154000100CEC 3000                    09167118491         Proceso O.K.                                                                                                                                          001TITULO  0000011737                      ZG 13685880916711849    CISNEROS CALDERON ELSA JANNETH          000000009072620000000000000000
305738000006000001RE20160404USD0000000002928830100CEC 3000                    09191979701         Proceso O.K.                                                                                                                                          001TITULO  0000007334                      ZG 13685880919197970    BURBANO ERAZO JACQUELINE BELEN          000000008980320000000000000000
305738000007000001RE20160404USD0000000000301100100CEC 3000                    09140479311         Proceso O.K.                                                                                                                                          001TITULO  0000016378                      ZG 13685880914047931    FRANCO OLAYA RONALD ALEXIS              000000008964320000000000000000
305738000008000001RE20160404USD0000000000333000110CEC 3000                    09046394401         Proceso O.K.                                                                                                                                          001TITULO  00090                           ZG 13685880904639440    FRANCO CARDENAS BELLA MATILDE           000000004487020000000000000000
305738000009000001RE20160404USD0000000000193110100CEC 3000                    09041669802         Proceso O.K.                                                                                                                                          001TITULO  0000005572                      ZG 13685880904166980    CASTANEDA PACHECO JULIA TARGEL          000000008955420000000000000000
305738000010000001RE20160404USD0000000000313100158CEC 3000                    09202407021         Proceso O.K.                                                                                                                                          001TITULO  0000018130                      ZG 13685880920240702    CAMINO LITUMA CARLOS ALBERTO            000000009313620000000000000000
305738000011000001RE20160404USD0000000000228980129CEC 3000                    09087769411         Proceso O.K.                                                                                                                                          001TITULO  0000018707                      ZG 13685880908776941    ORTIZ GAVILANES KETTY MARILIN           000000003830420000000000000000
305738000012000001RE20160404USD0000000000048730109CEC 3000                    09195174331         Proceso O.K.                                                                                                                                          001TITULO  0000018062                      ZG 13685880919517433    DIAZ CONTRERAS ALEXANDRA MABEL          000000001409220000000000000000
305738000013000001RE20160404USD0000000000337430100CEC 3000                    09169618731         Proceso O.K.                                                                                                                                          001TITULO  0000004853                      ZG 13685880916961873    HARO MORALES IVAN FRANCISCO             000000008806420000000000000000
305738000014000001RE20160404USD0000000001104980178CEC 3000                    09078427441         Proceso O.K.                                                                                                                                          001TITULO  0000037942                      ZG 13685880907842744    PINO ARTEAGA BOLIVAR BENIGNO            000000007215820000000000000000
305738000015000001RE20160404USD0000000000034370110CEC 3000                    09057525801         Proceso O.K.                                                                                                                                          001CRSI9218390190773006                    ZG 13685880905752580    VARGAS CANO ARACELY OFELIA              000000004344220000000000000000
305738000016000001RE20160404USD0000000000211890185CEC 3000                    12009356071         Proceso O.K.                                                                                                                                          001TITULO  0000016181                      ZG 13685881200935607    CHUNGA PATINO SAIDA INES                000000007266820000000000000000
305738000017000001RE20160404USD0000000000020000186CEC 3000                    09115336691         Proceso O.K.                                                                                                                                          001VISA4179450042859011                    ZG 13685880911533669    LAJE PILAY TEMPORA ESPERANZA            000000003401620000000000000000
305738000018000001RE20160404USD0000000000078110131CEC 3000                    09042595381         Proceso O.K.                                                                                                                                          001TITULO  0000041150                      ZG 13685880904259538    MORALES PALE HILDA MAGDALENA            000000003766920000000000000000
305738000019000001RE20160404USD0000000000200890131CEC 3000                    09023156471         Proceso O.K.                                                                                                                                          001TITULO  0000016337                      ZG 13685880902315647    ESTARELLAS THORET YDA LUCIA             000000003757320000000000000000
305738000020000001RE20160404USD0000000000987800100CEC 3000                    09159628561         Proceso O.K.                                                                                                                                          001TITULO  0000015099                      ZG 13685880915962856    MORANTE MENDEZ BARBARA ELENA            000000008599420000000000000000
305738000021000001RE20160404USD0000000000071910100CEC 3000                    09085975371         Proceso O.K.                                                                                                                                          001TITULO  0000041462                      ZG 13685880908597537    ARREAGA ORELLANA MARIA AZUCENA          000000008593520000000000000000
305738000022000001RE20160404USD0000000000100000186CEC 3000                    09235310571         Proceso O.K.                                                                                                                                          001CRSI9218390345092005                    ZG 13685880923531057    TOALA DELGADO MONICA JESSENIA           000000003380920000000000000000
305738000023000001RE20160404USD0000000000114770110CEC 3000                    09052800611         Proceso O.K.                                                                                                                                          001TITULO  0000005587                      ZG 13685880905280061    AVILA MORAN MARIA LAURA                 000000004276920000000000000000
305738000024000001RE20160404USD0000000000134050110CEC 3000                    12034614601         Proceso O.K.                                                                                                                                          001TITULO  0000014782                      ZG 13685881203461460    VALENZUELA RECILLO ARGELIA ANN          000000004260920000000000000000
305738000025000001RE20160404USD0000000000108050197CEC 3000                    09022212901         Proceso O.K.                                                                                                                                          001TITULO  0000027292                      ZG 13685880902221290    MUNOZ ZEA LUCIA LASTENIA                000000001527320000000000000000
305738000026000001RE20160404USD0000000000212240100CEC 3000                    09054099911         Proceso O.K.                                                                                                                                          001TITULO  0000041209                      ZG 13685880905409991    VELASCO SALAZAR LIDIA VICTORIA          000000008529420000000000000000
305738000027000001RE20160404USD0000000000300000100CEC 3000                    09134699201         Proceso O.K.                                                                                                                                          001TITULO  0000038483                      ZG 13685880913469920    FARINO TORRES LIDIA MANUELA             000000008527320000000000000000
305738000028000001RE20160404USD0000000000200000100CEC 3000                    13041308991         Proceso O.K.                                                                                                                                          001TITULO  0000039998                      ZG 13685881304130899    LUGO ZAMBRANO AGASIZ DOLORES C          000000008524920000000000000000
305738000029000001RE20160404USD0000000000244870100CEC 3000                    09202110341         Proceso O.K.                                                                                                                                          001TITULO  0000045290                      ZG 13685880920211034    GRANDA ARISMENDI MARIANA DE             000000008522620000000000000000
305738000030000001RE20160404USD0000000000355690100CEC 3000                    09227233581         Proceso O.K.                                                                                                                                          001TITULO  0000050463                      ZG 13685880922723358    MENDOZA  VASQUEZ LAURA  VIVIAN          000000008518220000000000000000
305738000031000001RE20160404USD0000000000077140149CEC 3000                    09056754761         Proceso O.K.                                                                                                                                          001CRSI9218390095283002                    ZG 13685880905675476    LARA ARREAGA ROSA MARIANA DE J          000000003159620000000000000000
305738000032000001RE20160404USD0000000000152660105CEC 3000                    09096716611         Proceso O.K.                                                                                                                                          001TITULO  0000041571                      ZG 13685880909671661    SANCHEZ SUAREZ DORA MARTHA              000000009313320000000000000000
305738000033000001RE20160404USD0000000000090000184CEC 3000                    07033847841         Proceso O.K.                                                                                                                                          001VISA4179450006079010                    ZG 13685880703384784    LOAYZA ZUNIGA JUAN CARLOS               000000007032420000000000000000
305738000034000001RE20160404USD0000000000049990108CEC 3000                    09048477791         Proceso O.K.                                                                                                                                          001TITULO  0000017166                      ZG 13685880904847779    MOREIRA NARANJO CARLOS MILTON           000000003535520000000000000000
305738000035000001RE20160404USD0000000000201310125CEC 3000                    09117659151         Proceso O.K.                                                                                                                                          001TITULO  0000041814                      ZG 13685880911765915    PITA FRANCO LUIS CARLOS                 000000002111920000000000000000
305738000036000001RE20160404USD0000000000020000105CEC 3000                    09053565981         Proceso O.K.                                                                                                                                          001CRSI9218390178450023                    ZG 13685880905356598    NEIRA LLERENA PATRICIA YOLANDA          000000009246220000000000000000
305738000037000001RE20160404USD0000000000050000149CEC 3000                    13039895841         Proceso O.K.                                                                                                                                          001CRSI9218390071821007                    ZG 13685881303989584    MACIAS JARAMILLO RAQUEL MONSER          000000003084220000000000000000
305738000038000001RE20160404USD0000000000010000105CEC 3000                    09070529141         Proceso O.K.                                                                                                                                          001CRSI9218390269233007                    ZG 13685880907052914    .GONZALEZ RODRIGUEZ GERARDO GI          000000009191920000000000000000
305739000001000001RE20160404USD0000000000234490550CEC 3000                    17050918231         Proceso O.K.                                                                                                                                          001TITULO  0000019344                      ZG 13685971705091823    VITERI VITERI REINALDO JAVIER           000000006398020000000000000000
305739000002000001RE20160404USD0000000000012000574CEC 3000                    17016547491         Proceso O.K.                                                                                                                                          001CRSI9218390274164007                    ZG 13685971701654749    ESPIN TERAN VILMA ADRIANA               000000009371520000000000000000
305739000003000001RE20160404USD0000000000015000558CEC 3000                    17104667391         Proceso O.K.                                                                                                                                          001VISA4179450036345001                    ZG 13685971710466739    ZAMBONINO CAMPOVERDE MONICA JU          000000001011420000000000000000
305739000004000001RE20160404USD0000000000091000545CEC 3000                    17043210981         Proceso O.K.                                                                                                                                          001CRSI9218390192236002                    ZG 13685971704321098    GUERRERO AMPUDIA JUSTINIANO EU          000000004331520000000000000000
305739000005000001RE20160404USD0000000000010690500CEC 3000                    17112259851         Proceso O.K.                                                                                                                                          001CRSI9218390152226001                    ZG 13685971711225985    SALVADOR ESPINOSA MONICA MARIT          000000008922520000000000000000
305739000006000001RE20160404USD0000000001957410545CEC 3000                    17219849021         Proceso O.K.                                                                                                                                          001TITULO  0000031788                      ZG 13685971721984902    VERDEZOTO GUERRERO KLEVER ANDR          000000004214120000000000000000
305739000007000001RE20160404USD0000000000009520519CEC 3000                    17112722191         Proceso O.K.                                                                                                                                          001CRSI9218390152230029                    ZG 13685971711272219    MARIN LIMAICO MARCO AURELIO             000000005367920000000000000000
305739000008000001RE20160404USD0000000000020000582CEC 3000                    12035670011         Proceso O.K.                                                                                                                                          001VISA4179450013111004                    ZG 13685971203567001    CAMPUZANO CARRIEL ANGELA TAMAR          000000009173920000000000000000
ZZZR0990029105001 000061000000000000000000000001441864