AAAR0990029105001 20160401200415000038000000000000000000000000731865
305732000001000001RE20160401USD0000000000119860109CEC 3000                    09093352831         Proceso O.K.                                                                                                                                          001TITULO  0000014029                      ZG 13666940909335283    FERNANDEZ ALVARADO CARMEN INES          000000001868620000000000000000
305732000002000001RE20160401USD0000000000120000100CEC 3000                    09063968901         Proceso O.K.                                                                                                                                          001TITULO  0000005607                      ZG 13666940906396890    ESPINOZA BELTRAN JULIA MARIA            000000009899220000000000000000
305732000003000001RE20160401USD0000000000150000100CEC 3000                    09153118561         Proceso O.K.                                                                                                                                          001TITULO  0000011571                      ZG 13666940915311856    BRAN BRAVO ROXANA CATALINA              000000009885420000000000000000
305732000004000001RE20160401USD0000000000022420100CEC 3000                    09036092201         Proceso O.K.                                                                                                                                          001VISA4179450028493009                    ZG 13666940903609220    ESPANA GUIZAMANO JUSTI JANET            000000009786420000000000000000
305732000005000001RE20160401USD0000000000100000184CEC 3000                    09081691391         Proceso O.K.                                                                                                                                          001TITULO  0000015493                      ZG 13666940908169139    ROJAS MONROY RICARDO                    000000008284120000000000000000
305732000006000001RE20160401USD0000000000059970100CEC 3000                    09050610731         Proceso O.K.                                                                                                                                          001CRSI9218390192005001                    ZG 13666940905061073    PACHECO RODRIGUEZ MANUEL ALFRE          000000009768720000000000000000
305732000007000001RE20160401USD0000000000125000149CEC 3000                    09007286351         Proceso O.K.                                                                                                                                          001TITULO  0000024570                      ZG 13666940900728635    AVILES NICOLA BEATRIZ ELIZABET          000000003915520000000000000000
305732000008000001RE20160401USD0000000000084020161CEC 3000                    09227985091         Proceso O.K.                                                                                                                                          001TITULO  0000018265                      ZG 13666940922798509    CARTAGENA MEDINA FREDDY ANGELO          000000001924920000000000000000
305732000009000001RE20160401USD0000000000126640129CEC 3000                    09195537271         Proceso O.K.                                                                                                                                          001TITULO  0000016021                      ZG 13666940919553727    GRIPPA MUNOZ MERCY ELIZABETH            000000004450520000000000000000
305732000010000001RE20160401USD0000000000290960105CEC 3000                    09004894282         Proceso O.K.                                                                                                                                          001TITULO  0000001941                      ZG 13666940900489428    CEDENO CEDENO OLAYA HAYDEE              000000001372020000000000000000
305732000011000001RE20160401USD0000000000100000171CEC 3000                    09205635171         Proceso O.K.                                                                                                                                          001TITULO  0000005027                      ZG 13666940920563517    DUCHIMAZA BORJA JORGE HUMBERTO          000000004317120000000000000000
305732000012000001RE20160401USD0000000000164000129CEC 3000                    09089387071         Proceso O.K.                                                                                                                                          001TITULO  0000014973                      ZG 13666940908938707    NARANJO DONOSO JULIO LENIN              000000004425820000000000000000
305732000013000001RE20160401USD0000000000000010161CEC 3000                    09170579291         Proceso O.K.                                                                                                                                          001TITULO  0000015913                      ZG 13666940917057929    RUIZ PINEDA ALICIA TOMASA               000000001897020000000000000000
305732000014000001RE20160401USD0000000000314170161CEC 3000                    09129288351         Proceso O.K.                                                                                                                                          001TITULO  0000015713                      ZG 13666940912928835    AVELINO VILLAO ROSA YSELA               000000001876320000000000000000
305732000015000001RE20160401USD0000000000170000149CEC 3000                    09095663821         Proceso O.K.                                                                                                                                          001TITULO  0000003031                      ZG 13666940909566382    CARABALI DEVIS ALEXANDRA MARIA          000000003851520000000000000000
305732000016000001RE20160401USD0000000000020000161CEC 3000                    09059747621         Proceso O.K.                                                                                                                                          001CRSI9218390033610019                    ZG 13666940905974762    ZAMORA MORALES GRACIELA                 000000001869620000000000000000
305732000017000001RE20160401USD0000000000200000100CEC 3000                    09039097291         Proceso O.K.                                                                                                                                          001TITULO  0000002899                      ZG 13666940903909729    CRUZ BENALCAZAR PATRICIA GEORG          000000009573120000000000000000
305732000018000001RE20160401USD0000000000010860108CEC 3000                    09035517111         Proceso O.K.                                                                                                                                          001CRSI9218390072780004                    ZG 13666940903551711    ESPINOZA FLORES SOLEDAD MARIA           000000004235320000000000000000
305732000019000001RE20160401USD0000000000023810100CEC 3000                    09044786821         Proceso O.K.                                                                                                                                          001VISA4179450044577009                    ZG 13666940904478682    MORA CISNEROS FAUSTO ELIAS              000000009543220000000000000000
305732000020000001RE20160401USD0000000000119750100CEC 3000                    09173780771         Proceso O.K.                                                                                                                                          001TITULO  0000032712                      ZG 13666940917378077    MIRANDA MOREIRA GISELLA YADIRA          000000009530220000000000000000
305732000021000001RE20160401USD0000000000030000113CEC 3000                    09086140011         Proceso O.K.                                                                                                                                          001VISA4179450055716017                    ZG 13666940908614001    BAJANA GUERRA ALEXANDRA JOSEFI          000000006807220000000000000000
305732000022000001RE20160401USD0000000000134560109CEC 3000                    09087787231         Proceso O.K.                                                                                                                                          001TITULO  0000010786                      ZG 13666940908778723    MOLINA ROSADO ALBA LUCCIOLA             000000001635120000000000000000
305732000023000001RE20160401USD0000000000040000110CEC 3000                    09035550011         Proceso O.K.                                                                                                                                          001CRSI9218397003345005                    ZG 13666940903555001    MORA BARAHONA RUSIA MARIA               000000004901420000000000000000
305732000024000001RE20160401USD0000000000020000101CEC 3000                    09166597901         Proceso O.K.                                                                                                                                          001CRSI9218390145535039                    ZG 13666940916659790    VILLAMAR MORALES MONICA DEL RO          000000001145420000000000000000
305732000025000001RE20160401USD0000000000060000171CEC 3000                    09097108571         Proceso O.K.                                                                                                                                          001VISA4179450026348007                    ZG 13666940909710857    VILLAMAR HUACON RUBEN ALBERTO           000000004220920000000000000000
305732000026000001RE20160401USD0000000000195410105CEC 3000                    09138578501         Proceso O.K.                                                                                                                                          001TITULO  0000004647                      ZG 13666940913857850    ANTON ARCE EGDA CATALINA                000000001096520000000000000000
305732000027000001RE20160401USD0000000000284300102CEC 3000                    09102129351         Proceso O.K.                                                                                                                                          001TITULO  0000016362                      ZG 13666940910212935    CASTRO PESANTES ANITA YOLANDA           000000003247720000000000000000
305732000028000001RE20160401USD0000000000090780105CEC 3000                    13065908431         Proceso O.K.                                                                                                                                          001CRSI9218390102439001                    ZG 13666941306590843    ESPINALES MORALES JUANA ELIZAB          000000001036620000000000000000
305733000001000001RE20160401USD0000000000031380508CEC 3000                    17056806581         Proceso O.K.                                                                                                                                          001VISA4179450064487014                    ZG 13670051705680658    AVILA VILLACRES FRANCISCO JAVI          000000009795320000000000000000
305733000002000001RE20160401USD0000000000015000503CEC 3000                    17102899821         Proceso O.K.                                                                                                                                          001CRSI9218390125065015                    ZG 13670051710289982    ORTIZ GARCES EVITA DEL CONSUEL          000000003749020000000000000000
305733000003000001RE20160401USD0000000000936110519CEC 3000                    17024118831         Proceso O.K.                                                                                                                                          001TITULO  0000049669                      ZG 13670051702411883    VARGAS GONZALEZ FREDDY MARIO E          000000006051920000000000000000
305733000004000001RE20160401USD0000000000099250545CEC 3000                    17095459071         Proceso O.K.                                                                                                                                          001TITULO  0000032955                      ZG 13670051709545907    RUIZ RUIZ DEBORA MARIANELA              000000004833520000000000000000
305733000005000001RE20160401USD0000000002485000519CEC 3000                    17029658051         Proceso O.K.                                                                                                                                          001TITULO  0000030440                      ZG 13670051702965805    JACOME JIJON MARCELO ALFREDO            000000006027120000000000000000
305733000006000001RE20160401USD0000000000100000542CEC 3000                    17007132151         Proceso O.K.                                                                                                                                          001VISA4179450058423017                    ZG 13670051700713215    LOPEZ ESCALANTE BERTHA JUDITH           000000007923420000000000000000
305733000007000001RE20160401USD0000000000130000542CEC 3000                    17007132152         Proceso O.K.                                                                                                                                          001CRSI9218390117163018                    ZG 13670051700713215    LOPEZ ESCALANTE BERTHA JUDITH           000000007922820000000000000000
305733000008000001RE20160401USD0000000000254640550CEC 3000                    17120829551         Proceso O.K.                                                                                                                                          001TITULO  0000043978                      ZG 13670051712082955    BOLANOS ENDARA FRANKLIN PATRIC          000000006747020000000000000000
305733000009000001RE20160401USD0000000000075750505CEC 3000                    13068247701         Proceso O.K.                                                                                                                                          001TITULO  0000030328                      ZG 13670051306824770    ALAVA VERA MAIRA PAULINA                000000006692220000000000000000
305733000010000001RE20160401USD0000000000015000508CEC 3000                    13045790611         Proceso O.K.                                                                                                                                          001CRSI9218390165653001                    ZG 13670051304579061    PINCAY PICO FATIMA NARCISA              000000009635920000000000000000
ZZZR0990029105001 000038000000000000000000000000731865